:100000000C9463000C948B000C948B000C948B006C
:100010000C948B000C948B000C948B000C948C052E
:100020000C948B000C948B000C948B000C948B0024
:100030000C948B000C948B000C948B000C948B0014
:100040000C9400010C948B000C94A3020C94D50228
:100050000C948B000C948B000C948B000C948B00F4
:100060000C948B000C948B0000000008000201002F
:100070000003040700000000000000000102040863
:100080001020408001020408102001020408102002
:10009000040404040404040402020202020203032E
:1000A00003030303000000002300260029000000D2
:1000B0000000250028002B0000000000240027007D
:1000C0002A000200050311241FBECFEFD8E0DEBFD7
:1000D000CDBF11E0A0E0B1E0EEE2F1E102C0059099
:1000E0000D92AC32B107D9F721E0ACE2B1E001C02A
:1000F0001D92A73EB207E1F710E0C6ECD0E004C0C5
:100100002297FE010E948208C43CD107C9F70E94D1
:1001100024080C9495080C940000CF9326E040E846
:1001200055E260E070E085E391E00E94C70761E07E
:100130008DE00E940B02C2E062E08C2F0E940B0255
:10014000CF5FC930C9F7CF9108951F93CF93DF9345
:10015000C0E0D1E012E0812F0E947A02892B49F49D
:100160006881798124E130E040E050E08DE00E9438
:1001700048031F5F2296173071F787E00E947A02CA
:10018000892BB9F4E0E0F1E08081918197FD01963F
:10019000959587958193919381E0EA30F807A1F7CF
:1001A00064EF71E080E090E00E946D01C0E0D1E07A
:1001B00012C088E00E947A02892BC1F7E0E0F1E0EA
:1001C00080819181880F991F8193919381E0EA301A
:1001D000F807B1F7E5CF699179914AE050E085E3FE
:1001E00091E00E94DC0681E0CA30D807A1F76DE0FB
:1001F00071E085E391E0DF91CF911F910C9431067E
:100200001F920F920FB60F9211242F933F938F934B
:100210009F93AF93BF9380912D0190912E01A09158
:100220002F01B091300130912C0126E0230F2D37A2
:1002300020F40296A11DB11D05C029E8230F0396E5
:10024000A11DB11D20932C0180932D0190932E01AF
:10025000A0932F01B0933001809131019091320130
:10026000A0913301B09134010196A11DB11D80937D
:10027000310190933201A0933301B0933401BF91C7
:10028000AF919F918F913F912F910F900FBE0F9043
:100290001F9018953FB7F8948091310190913201E9
:1002A000A0913301B091340126B5A89B05C02F3F22
:1002B00019F00196A11DB11D3FBF6627782F892F28
:1002C0009A2F620F711D811D911D43E0660F771FEC
:1002D000881F991F4A95D1F708958F929F92AF92E8
:1002E000BF92CF92DF92EF92FF926B017C010E944E
:1002F0004A014B015C01C114D104E104F104F1F0A5
:100300000E9433080E944A01681979098A099B09E9
:10031000683E73408105910570F321E0C21AD1084F
:10032000E108F10888EE880E83E0981EA11CB11C3C
:10033000C114D104E104F10429F7DDCFFF90EF905F
:10034000DF90CF90BF90AF909F908F90089578945A
:1003500084B5826084BD84B5816084BD85B58260CA
:1003600085BD85B5816085BDEEE6F0E08081816068
:100370008083E1E8F0E01082808182608083808168
:1003800081608083E0E8F0E0808181608083E1EB40
:10039000F0E0808184608083E0EBF0E08081816028
:1003A0008083EAE7F0E080818460808380818260DE
:1003B000808380818E7F808380818068808310929B
:1003C000C1000895833081F028F4813099F08230A3
:1003D000A1F008958730A9F08830B9F08430D1F4C5
:1003E000809180008F7D03C0809180008F77809303
:1003F0008000089584B58F7702C084B58F7D84BD59
:1004000008958091B0008F7703C08091B0008F7DF8
:100410008093B0000895CF93DF9390E0FC01E458FF
:10042000FF4F2491FC01E057FF4F8491882349F14D
:1004300090E0880F991FFC01E854FF4FA591B491FB
:1004400082559F4FFC01C591D4919FB7611108C09F
:10045000F8948C91209582238C93888182230AC002
:10046000623051F4F8948C91322F309583238C9321
:100470008881822B888304C0F8948C91822B8C9382
:100480009FBFDF91CF9108950F931F93CF93DF9379
:100490001F92CDB7DEB7282F30E0F901E859FF4FA2
:1004A0008491F901E458FF4F1491F901E057FF4F8F
:1004B00004910023C9F0882321F069830E94E2019E
:1004C0006981E02FF0E0EE0FFF1FE255FF4FA5918D
:1004D000B4919FB7F8948C91611103C0109581235A
:1004E00001C0812B8C939FBF0F90DF91CF911F9103
:1004F0000F910895CF93DF93282F30E0F901E85949
:10050000FF4F8491F901E458FF4FD491F901E0576E
:10051000FF4FC491CC2391F081110E94E201EC2F96
:10052000F0E0EE0FFF1FEC55FF4FA591B4912C9119
:100530002D2381E090E021F480E002C080E090E093
:10054000DF91CF9108951F920F920FB60F92112451
:100550002F938F939F93EF93FF93E0914501F09139
:1005600046018081E0914B01F0914C0182FD12C067
:10057000908180914E018F5F8F7320914F01821780
:1005800051F0E0914E01F0E0EB5CFE4F958F8093CF
:100590004E0101C08081FF91EF919F918F912F912A
:1005A0000F900FBE0F901F9018951F920F920FB6CD
:1005B0000F9211242F933F934F935F936F937F93E9
:1005C0008F939F93AF93BF93EF93FF9385E391E056
:1005D0000E941F07FF91EF91BF91AF919F918F9163
:1005E0007F916F915F914F913F912F910F900FBE2F
:1005F0000F901F90189585E391E00E94E40621E09A
:10060000892B09F420E0822F08951092380110926E
:10061000370188EE93E0A0E0B0E080933901909339
:100620003A01A0933B01B0933C0180E291E09093AA
:1006300036018093350185EC90E0909342018093E0
:10064000410184EC90E0909344018093430180EC5D
:1006500090E0909346018093450181EC90E0909367
:1006600048018093470182EC90E090934A01809387
:10067000490186EC90E090934C0180934B011092DD
:100680004E0110924F0110925001109251010895A5
:100690003F924F925F926F927F928F929F92AF9212
:1006A000BF92CF92DF92EF92FF920F931F93CF935F
:1006B000DF9300D000D0CDB7DEB78B0129013A011E
:1006C00090910A01981721F09F3F09F0DAC104C008
:1006D000E2ECF0E0349081C080930A01E2ECF0E0BB
:1006E000E491EF3F09F4CDC1E13031F1E23009F49A
:1006F0004BC0E11171C014BC15BC94B5926094BD9F
:1007000095B5916095BD282F30E0F901E057FF4F76
:10071000E491F0E0EE0FFF1FE255FF4F4591549139
:100720005093E2014093E101F901E458FF4F249115
:100730002093E001312C53C0109280001092810070
:1007400090918100986090938100909181009160D8
:1007500090938100282F30E0F901E057FF4FE4919A
:10076000F0E0EE0FFF1FE255FF4F4591549150937B
:10077000DB014093DA01F901E458FF4F2491209303
:10078000D901332433942BC01092B0001092B100E1
:100790009091B00092609093B0009091B100916000
:1007A0009093B100282F30E0F901E057FF4FE4911A
:1007B000F0E0EE0FFF1FE255FF4F4591549150932B
:1007C000D4014093D301F901E458FF4F24912093C1
:1007D000D20152E0352E03C03E2E37FC52C161E0FB
:1007E0000E940B024801A12CB12C832D8D7F09F0B2
:1007F000C7C060E079E08DE390E0A50194010E941C
:10080000560829833A834B835C8369017A0181E02E
:10081000C81AD108E108F1089FEFC916D104E10414
:10082000F10409F008F49AC060E271EA87E090E010
:10083000A50194010E94560869017A01E1E0CE1AEF
:10084000D108E108F108F2E03F1219C08FEFC81695
:10085000D104E104F10409F008F48AC068E478EEF8
:1008600081E090E0A50194010E94560869017A0197
:1008700091E0C91AD108E108F10883E001C082E0E3
:10088000EFEFCE16D104E104F10409F008F467C0DB
:1008900064E274EF80E090E0A50194010E945608A4
:1008A00069017A01F1E0CF1AD108E108F10833209B
:1008B000E1F082E038121BC09FEFC916D104E104B9
:1008C000F10409F008F4DBC062E17AE780E090E02F
:1008D000A50194010E94560869017A01E1E0CE1A4F
:1008E000D108E108F10885E003C083E001C084E09D
:1008F000FFEFCF16D104E104F10489F180F169E042
:100900007DE380E090E0A50194010E945608690112
:100910007A0181E0C81AD108E108F108311002C05B
:1009200084E001C086E09FEFC916D104E104F10420
:10093000B1F0A8F0C980DA80EB80FC809AE0F594F1
:10094000E794D794C7949A95D1F7E1E0CE1AD108ED
:10095000E108F108332031F087E00BC081E033205B
:1009600011F007C085E095B5987F982B95BD38C0EC
:1009700082E09091B100987F982B9093B10030C0A5
:1009800060E079E08DE390E0A50194010E945608B3
:1009900069017A01F1E0CF1AD108E108F108C11428
:1009A000D10481E0E806F10488F064E274EF80E0AD
:1009B00090E0A50194010E94560869017A0191E036
:1009C000C91AD108E108F10893E001C091E0E1E023
:1009D0003E1206C080918100887F892B8093810020
:1009E000411451046104710471F0D801AA0FBB1FB6
:1009F000A30192010E94750828EE33E040E050E028
:100A00000E94340803C02FEF3FEFA901F1E03F1629
:100A1000A1F082E0381619F1311033C0C7BC209321
:100A2000E3013093E4014093E5015093E6018091A6
:100A30006E00826080936E0024C0D0928900C092C4
:100A400088002093DC013093DD014093DE01509358
:100A5000DF0180916F00826080936F0012C0C092AE
:100A6000B3002093D5013093D6014093D701509322
:100A7000D8018091700082608093700002C084E091
:100A800078CF0F900F900F900F90DF91CF911F9123
:100A90000F91FF90EF90DF90CF90BF90AF909F901D
:100AA0008F907F906F905F904F903F90089581302E
:100AB00039F018F0823051F0089510926E000895C8
:100AC00080916F008D7F80936F00089580917000FA
:100AD0008D7F8093700081E08093B0008091B100A1
:100AE000887F84608093B1001092B3000895CF9303
:100AF000C82F80910A018C1307C0E2ECF0E08491CA
:100B00009FEF90930A0101C08FEF0E94570560E0AC
:100B10008C2FCF910C9444021F920F920FB60F921C
:100B200011242F933F934F935F936F937F938F93F2
:100B30009F93AF93BF93EF93FF938091D5019091D3
:100B4000D601A091D701B091D801892B8A2B8B2B8C
:100B500051F19091D201E091D301F091D4018081C3
:100B6000892780838091D5019091D601A091D701EA
:100B7000B091D801181619061A061B06C4F4809104
:100B8000D5019091D601A091D701B091D8010197DC
:100B9000A109B1098093D5019093D601A093D70103
:100BA000B093D80104C080910A010E947705FF919B
:100BB000EF91BF91AF919F918F917F916F915F91D5
:100BC0004F913F912F910F900FBE0F901F9018954E
:100BD000CF92DF92EF92FF920F931F93CF93DF9309
:100BE0007C016A01EB0100E010E00C151D0571F0BD
:100BF0006991D701ED91FC910190F081E02DC70141
:100C00000995892B19F00F5F1F4FEFCFC801DF91B6
:100C1000CF911F910F91FF90EF90DF90CF900895AB
:100C20006115710581F0DB010D900020E9F7AD0140
:100C300041505109461B570BDC01ED91FC9102809C
:100C4000F381E02D099480E090E00895DC01ED91BE
:100C5000FC910190F081E02D09946BE071E00C941F
:100C600010060F931F93CF93DF93EC010E941006A1
:100C70008C01CE010E942D06800F911FDF91CF9134
:100C80001F910F9108958F929F92AF92BF92DF9222
:100C9000EF92FF920F931F93CF93DF93CDB7DEB701
:100CA000A1970FB6F894DEBF0FBECDBF7C01F42F25
:100CB000D52ECB0119A2223008F42AE08E010F5D57
:100CC0001F4F822E912CA12CB12C6F2F7D2DA501B1
:100CD00094010E943408F22FD32ECA010150110949
:100CE0006A3014F4E0E301C0E7E3E60FD801EC93C7
:100CF000232B242B252B49F7B801C7010E9410068E
:100D0000A1960FB6F894DEBF0FBECDBFDF91CF9195
:100D10001F910F91FF90EF90DF90BF90AF909F9049
:100D20008F900895CF92DF92EF92FF920F931F93CF
:100D3000CF93DF93EC016A017B012115310579F432
:100D4000E881F9810190F081E02D642FDF91CF914E
:100D50001F910F91FF90EF90DF90CF9009942A3070
:100D60003105E9F477FF1AC06DE20E9426068C0176
:100D700044275527BA014C195D096E097F092AE0FD
:100D8000CE010E944306800F911FDF91CF911F91EA
:100D90000F91FF90EF90DF90CF9008952AE0B70178
:100DA000A601CE01DF91CF911F910F91FF90EF909F
:100DB000DF90CF900C9443069A01AB01662757FD54
:100DC0006095762F0C949206FC01818D228D90E027
:100DD000805C9F4F821B91098F7399270895FC01B6
:100DE000918D828D981731F0828DE80FF11D858DE0
:100DF00090E008958FEF9FEF0895FC01918D828D13
:100E0000981761F0828DDF01A80FB11D5D968C915E
:100E1000928D9F5F9F73928F90E008958FEF9FEF69
:100E200008958BEF92E0892B49F080E090E0892BC8
:100E300029F00E94FB0281110C9400000895FC012E
:100E4000848DDF01A80FB11DA35ABF4F2C91848D53
:100E500090E001968F739927848FA689B7892C9388
:100E6000A089B1898C9180648C93938D848D981323
:100E700006C00288F389E02D80818F7D80830895EC
:100E8000CF93DF93EC01888D8823C9F0EA89FB8931
:100E9000808185FD05C0A889B9898C9186FD0FC028
:100EA0000FB607FCF5CF808185FFF2CFA889B989FD
:100EB0008C9185FFEDCFCE010E941F07E7CFDF9118
:100EC000CF910895CF92DF92FF920F931F93CF930C
:100ED000DF931F92CDB7DEB76C0181E0D601589643
:100EE0008C9358975B969C915B975C968C915C97E2
:100EF000981307C05096ED91FC915197808185FD24
:100F00002EC0F601038D10E00F5F1F4F0F731127E6
:100F1000F02EF601848DF81211C00FB607FCF9CF40
:100F2000D6015096ED91FC915197808185FFF1CFCC
:100F3000C60169830E941F076981EBCF838DE80F8B
:100F4000F11DE35AFF4F6083D6015B960C935B97CC
:100F50005296ED91FC915397808180620CC0D6012E
:100F60005696ED91FC91579760835096ED91FC91C8
:100F7000519780818064808381E090E00F90DF91C1
:100F8000CF911F910F91FF90DF90CF900895BF9266
:100F9000CF92DF92EF92FF92CF93DF93EC016A0141
:100FA0007B01B22E60E874E88EE190E0A701960123
:100FB0000E9434082150310941095109569547953D
:100FC00037952795E889F98982E08083211580E1AA
:100FD000380798F0E889F989108260E472E48FE0BC
:100FE00090E0A70196010E9434082150310941097F
:100FF00051095695479537952795EC85FD853083A2
:10100000EE85FF852083188EEC89FD89B082EA8900
:10101000FB89808180618083EA89FB898081886087
:101020008083EA89FB89808180688083EA89FB89E3
:1010300080818F7D8083DF91CF91FF90EF90DF9053
:10104000CF90BF90089508950E94A7010E942308A1
:101050000E948D00C1E1D7E00E94A5002097E1F336
:101060000E941107F9CF0895A1E21A2EAA1BBB1BFB
:10107000FD010DC0AA1FBB1FEE1FFF1FA217B30764
:10108000E407F50720F0A21BB30BE40BF50B661F7A
:10109000771F881F991F1A9469F76095709580953E
:1010A00090959B01AC01BD01CF010895052E97FBE2
:1010B0001EF400940E946D0857FD07D00E9434086A
:1010C00007FC03D04EF40C946D0850954095309574
:1010D00021953F4F4F4F5F4F0895909580957095A4
:1010E00061957F4F8F4F9F4F08950E948608A59F5F
:1010F000900DB49F900DA49F800D911D1124089513
:10110000EE0FFF1F0590F491E02D0994A29FB0010E
:10111000B39FC001A39F700D811D1124911DB29F2B
:0E112000700D811D1124911D0895F894FFCFCC
:10112E0016049704240575052006FF0D0A006E614E
:10113E006E00696E66006F7666002E00000000007D
:0C114E006207E805E406FD06EF06400716
:00000001FF
